{
  "contractName": "Adoption",
  "abi": [
    {
      "constant": true,
      "inputs": [
        {
          "name": "",
          "type": "uint256"
        }
      ],
      "name": "adopters",
      "outputs": [
        {
          "name": "",
          "type": "address"
        }
      ],
      "payable": false,
      "stateMutability": "view",
      "type": "function"
    },
    {
      "constant": false,
      "inputs": [
        {
          "name": "petId",
          "type": "uint256"
        }
      ],
      "name": "adopt",
      "outputs": [
        {
          "name": "",
          "type": "uint256"
        }
      ],
      "payable": false,
      "stateMutability": "nonpayable",
      "type": "function"
    },
    {
      "constant": true,
      "inputs": [],
      "name": "getadopters",
      "outputs": [
        {
          "name": "",
          "type": "address[16]"
        }
      ],
      "payable": false,
      "stateMutability": "view",
      "type": "function"
    }
  ],
  "bytecode": "0x608060405234801561001057600080fd5b506102d8806100206000396000f300608060405260043610610057576000357c0100000000000000000000000000000000000000000000000000000000900463ffffffff16806343ae80d31461005c5780638588b2c5146100c9578063b6f83d341461010a575b600080fd5b34801561006857600080fd5b506100876004803603810190808035906020019092919050505061015d565b604051808273ffffffffffffffffffffffffffffffffffffffff1673ffffffffffffffffffffffffffffffffffffffff16815260200191505060405180910390f35b3480156100d557600080fd5b506100f460048036038101908080359060200190929190505050610192565b6040518082815260200191505060405180910390f35b34801561011657600080fd5b5061011f610207565b6040518082601060200280838360005b8381101561014a57808201518184015260208101905061012f565b5050505090500191505060405180910390f35b60008160108110151561016c57fe5b016000915054906101000a900473ffffffffffffffffffffffffffffffffffffffff1681565b60008082101580156101a55750600f8211155b15156101b057600080fd5b336000836010811015156101c057fe5b0160006101000a81548173ffffffffffffffffffffffffffffffffffffffff021916908373ffffffffffffffffffffffffffffffffffffffff160217905550819050919050565b61020f610288565b600060108060200260405190810160405280929190826010801561027e576020028201915b8160009054906101000a900473ffffffffffffffffffffffffffffffffffffffff1673ffffffffffffffffffffffffffffffffffffffff1681526020019060010190808311610234575b5050505050905090565b610200604051908101604052806010906020820280388339808201915050905050905600a165627a7a7230582048c5a95d16181df72101358dac9e5153d2c50cb523a196db539c1094b6a790350029",
  "source": "pragma solidity ^0.4.17;\n\ncontract Adoption {\n    address[16] public adopters;\n    function adopt(uint petId) public returns (uint){\n        require(petId>=0 && petId<=15);\n        adopters[petId]=msg.sender;\n        return petId;\n    }\n    function getadopters() public view returns(address[16]) {\n        return adopters;   \n    }\n}\n",
  "sourcePath": "/home/manoj/pet-shop-tutorial/contracts/Adoption.sol",
  "compiler": {
    "name": "solc",
    "version": "0.4.24+commit.e67f0147.Emscripten.clang"
  },
  "schemaVersion": "2.0.1",
  "updatedAt": "2018-09-10T12:41:36.528Z"
}